{
  "_format": "hh-sol-artifact-1",
  "contractName": "MyEpicNFT",
  "sourceName": "contracts/MyEpicNFT.sol",
  "abi": [
    {
      "inputs": [],
      "stateMutability": "nonpayable",
      "type": "constructor"
    },
    {
      "anonymous": false,
      "inputs": [
        {
          "indexed": true,
          "internalType": "address",
          "name": "owner",
          "type": "address"
        },
        {
          "indexed": true,
          "internalType": "address",
          "name": "approved",
          "type": "address"
        },
        {
          "indexed": true,
          "internalType": "uint256",
          "name": "tokenId",
          "type": "uint256"
        }
      ],
      "name": "Approval",
      "type": "event"
    },
    {
      "anonymous": false,
      "inputs": [
        {
          "indexed": true,
          "internalType": "address",
          "name": "owner",
          "type": "address"
        },
        {
          "indexed": true,
          "internalType": "address",
          "name": "operator",
          "type": "address"
        },
        {
          "indexed": false,
          "internalType": "bool",
          "name": "approved",
          "type": "bool"
        }
      ],
      "name": "ApprovalForAll",
      "type": "event"
    },
    {
      "anonymous": false,
      "inputs": [
        {
          "indexed": false,
          "internalType": "address",
          "name": "sender",
          "type": "address"
        },
        {
          "indexed": false,
          "internalType": "uint256",
          "name": "tokenId",
          "type": "uint256"
        }
      ],
      "name": "NewEpicNFTMinted",
      "type": "event"
    },
    {
      "anonymous": false,
      "inputs": [
        {
          "indexed": true,
          "internalType": "address",
          "name": "from",
          "type": "address"
        },
        {
          "indexed": true,
          "internalType": "address",
          "name": "to",
          "type": "address"
        },
        {
          "indexed": true,
          "internalType": "uint256",
          "name": "tokenId",
          "type": "uint256"
        }
      ],
      "name": "Transfer",
      "type": "event"
    },
    {
      "inputs": [
        {
          "internalType": "address",
          "name": "to",
          "type": "address"
        },
        {
          "internalType": "uint256",
          "name": "tokenId",
          "type": "uint256"
        }
      ],
      "name": "approve",
      "outputs": [],
      "stateMutability": "nonpayable",
      "type": "function"
    },
    {
      "inputs": [
        {
          "internalType": "address",
          "name": "owner",
          "type": "address"
        }
      ],
      "name": "balanceOf",
      "outputs": [
        {
          "internalType": "uint256",
          "name": "",
          "type": "uint256"
        }
      ],
      "stateMutability": "view",
      "type": "function"
    },
    {
      "inputs": [
        {
          "internalType": "uint256",
          "name": "tokenId",
          "type": "uint256"
        }
      ],
      "name": "getApproved",
      "outputs": [
        {
          "internalType": "address",
          "name": "",
          "type": "address"
        }
      ],
      "stateMutability": "view",
      "type": "function"
    },
    {
      "inputs": [],
      "name": "getTotalNFTsMintedSoFar",
      "outputs": [
        {
          "internalType": "uint256",
          "name": "",
          "type": "uint256"
        }
      ],
      "stateMutability": "view",
      "type": "function"
    },
    {
      "inputs": [
        {
          "internalType": "address",
          "name": "owner",
          "type": "address"
        },
        {
          "internalType": "address",
          "name": "operator",
          "type": "address"
        }
      ],
      "name": "isApprovedForAll",
      "outputs": [
        {
          "internalType": "bool",
          "name": "",
          "type": "bool"
        }
      ],
      "stateMutability": "view",
      "type": "function"
    },
    {
      "inputs": [],
      "name": "makeAnEpicNFT",
      "outputs": [],
      "stateMutability": "nonpayable",
      "type": "function"
    },
    {
      "inputs": [],
      "name": "name",
      "outputs": [
        {
          "internalType": "string",
          "name": "",
          "type": "string"
        }
      ],
      "stateMutability": "view",
      "type": "function"
    },
    {
      "inputs": [],
      "name": "nftCap",
      "outputs": [
        {
          "internalType": "uint256",
          "name": "",
          "type": "uint256"
        }
      ],
      "stateMutability": "view",
      "type": "function"
    },
    {
      "inputs": [
        {
          "internalType": "uint256",
          "name": "tokenId",
          "type": "uint256"
        }
      ],
      "name": "ownerOf",
      "outputs": [
        {
          "internalType": "address",
          "name": "",
          "type": "address"
        }
      ],
      "stateMutability": "view",
      "type": "function"
    },
    {
      "inputs": [
        {
          "internalType": "uint256",
          "name": "tokenId",
          "type": "uint256"
        }
      ],
      "name": "pickRandomColor",
      "outputs": [
        {
          "internalType": "string",
          "name": "",
          "type": "string"
        }
      ],
      "stateMutability": "view",
      "type": "function"
    },
    {
      "inputs": [
        {
          "internalType": "uint256",
          "name": "tokenId",
          "type": "uint256"
        }
      ],
      "name": "pickRandomFirstWord",
      "outputs": [
        {
          "internalType": "string",
          "name": "",
          "type": "string"
        }
      ],
      "stateMutability": "view",
      "type": "function"
    },
    {
      "inputs": [
        {
          "internalType": "uint256",
          "name": "tokenId",
          "type": "uint256"
        }
      ],
      "name": "pickRandomSecondWord",
      "outputs": [
        {
          "internalType": "string",
          "name": "",
          "type": "string"
        }
      ],
      "stateMutability": "view",
      "type": "function"
    },
    {
      "inputs": [
        {
          "internalType": "uint256",
          "name": "tokenId",
          "type": "uint256"
        }
      ],
      "name": "pickRandomThirdWord",
      "outputs": [
        {
          "internalType": "string",
          "name": "",
          "type": "string"
        }
      ],
      "stateMutability": "view",
      "type": "function"
    },
    {
      "inputs": [
        {
          "internalType": "address",
          "name": "from",
          "type": "address"
        },
        {
          "internalType": "address",
          "name": "to",
          "type": "address"
        },
        {
          "internalType": "uint256",
          "name": "tokenId",
          "type": "uint256"
        }
      ],
      "name": "safeTransferFrom",
      "outputs": [],
      "stateMutability": "nonpayable",
      "type": "function"
    },
    {
      "inputs": [
        {
          "internalType": "address",
          "name": "from",
          "type": "address"
        },
        {
          "internalType": "address",
          "name": "to",
          "type": "address"
        },
        {
          "internalType": "uint256",
          "name": "tokenId",
          "type": "uint256"
        },
        {
          "internalType": "bytes",
          "name": "_data",
          "type": "bytes"
        }
      ],
      "name": "safeTransferFrom",
      "outputs": [],
      "stateMutability": "nonpayable",
      "type": "function"
    },
    {
      "inputs": [
        {
          "internalType": "address",
          "name": "operator",
          "type": "address"
        },
        {
          "internalType": "bool",
          "name": "approved",
          "type": "bool"
        }
      ],
      "name": "setApprovalForAll",
      "outputs": [],
      "stateMutability": "nonpayable",
      "type": "function"
    },
    {
      "inputs": [
        {
          "internalType": "bytes4",
          "name": "interfaceId",
          "type": "bytes4"
        }
      ],
      "name": "supportsInterface",
      "outputs": [
        {
          "internalType": "bool",
          "name": "",
          "type": "bool"
        }
      ],
      "stateMutability": "view",
      "type": "function"
    },
    {
      "inputs": [],
      "name": "symbol",
      "outputs": [
        {
          "internalType": "string",
          "name": "",
          "type": "string"
        }
      ],
      "stateMutability": "view",
      "type": "function"
    },
    {
      "inputs": [
        {
          "internalType": "uint256",
          "name": "tokenId",
          "type": "uint256"
        }
      ],
      "name": "tokenURI",
      "outputs": [
        {
          "internalType": "string",
          "name": "",
          "type": "string"
        }
      ],
      "stateMutability": "view",
      "type": "function"
    },
    {
      "inputs": [
        {
          "internalType": "address",
          "name": "from",
          "type": "address"
        },
        {
          "internalType": "address",
          "name": "to",
          "type": "address"
        },
        {
          "internalType": "uint256",
          "name": "tokenId",
          "type": "uint256"
        }
      ],
      "name": "transferFrom",
      "outputs": [],
      "stateMutability": "nonpayable",
      "type": "function"
    }
  ],
  "bytecode": "0x6080604052603260085560405180610100016040528060d3815260200162004d1e60d39139600990805190602001906200003b92919062000e33565b5060405180608001604052806056815260200162004df160569139600a90805190602001906200006d92919062000e33565b50604051806101a001604052806040518060400160405280600581526020017f4d6167696300000000000000000000000000000000000000000000000000000081525081526020016040518060400160405280600681526020017f507265747479000000000000000000000000000000000000000000000000000081525081526020016040518060400160405280600781526020017f5370656369616c0000000000000000000000000000000000000000000000000081525081526020016040518060400160405280600781526020017f537061726b6c790000000000000000000000000000000000000000000000000081525081526020016040518060400160405280600981526020017f576f6e64657266756c000000000000000000000000000000000000000000000081525081526020016040518060400160405280600781526020017f476c6f77696e670000000000000000000000000000000000000000000000000081525081526020016040518060400160405280600881526020017f466c61776c65737300000000000000000000000000000000000000000000000081525081526020016040518060400160405280600781526020017f53757072656d650000000000000000000000000000000000000000000000000081525081526020016040518060400160405280600881526020017f476c6f72696f757300000000000000000000000000000000000000000000000081525081526020016040518060400160405280600581526020017f5368696e7900000000000000000000000000000000000000000000000000000081525081526020016040518060400160405280600781526020017f4275726e696e670000000000000000000000000000000000000000000000000081525081526020016040518060400160405280600881526020017f4162756e64616e7400000000000000000000000000000000000000000000000081525081526020016040518060400160405280600981526020017f42656175746966756c0000000000000000000000000000000000000000000000815250815250600b90600d6200038992919062000ec4565b50604051806101a001604052806040518060400160405280600581526020017f466169727900000000000000000000000000000000000000000000000000000081525081526020016040518060400160405280600781526020017f537061726b6c650000000000000000000000000000000000000000000000000081525081526020016040518060400160405280600781526020017f556e69636f726e0000000000000000000000000000000000000000000000000081525081526020016040518060400160405280600481526020017f537461720000000000000000000000000000000000000000000000000000000081525081526020016040518060400160405280600681526020017f436f736d6963000000000000000000000000000000000000000000000000000081525081526020016040518060400160405280600b81526020017f456e6c69676874656e656400000000000000000000000000000000000000000081525081526020016040518060400160405280600481526020017f4f70616c0000000000000000000000000000000000000000000000000000000081525081526020016040518060400160405280600881526020017f436f756e7465737300000000000000000000000000000000000000000000000081525081526020016040518060400160405280600781526020017f4469616d6f6e640000000000000000000000000000000000000000000000000081525081526020016040518060400160405280600881526020017f47656d73746f6e6500000000000000000000000000000000000000000000000081525081526020016040518060400160405280600781526020017f426c6f73736f6d0000000000000000000000000000000000000000000000000081525081526020016040518060400160405280600381526020017f4a6f79000000000000000000000000000000000000000000000000000000000081525081526020016040518060400160405280600581526020017f447265616d000000000000000000000000000000000000000000000000000000815250815250600c90600d620006a592919062000ec4565b50604051806101a001604052806040518060400160405280600881526020017f5072696e6365737300000000000000000000000000000000000000000000000081525081526020016040518060400160405280600481526020017f506f6e790000000000000000000000000000000000000000000000000000000081525081526020016040518060400160405280600681526020017f47617264656e000000000000000000000000000000000000000000000000000081525081526020016040518060400160405280600981526020017f427574746572666c79000000000000000000000000000000000000000000000081525081526020016040518060400160405280600581526020017f517565656e00000000000000000000000000000000000000000000000000000081525081526020016040518060400160405280600881526020017f53796d70686f6e7900000000000000000000000000000000000000000000000081525081526020016040518060400160405280600581526020017f576974636800000000000000000000000000000000000000000000000000000081525081526020016040518060400160405280600681526020017f4b697474656e000000000000000000000000000000000000000000000000000081525081526020016040518060400160405280600581526020017f4a6577656c00000000000000000000000000000000000000000000000000000081525081526020016040518060400160405280600781526020017f6f6620476f6c640000000000000000000000000000000000000000000000000081525081526020016040518060400160405280600581526020017f506561726c00000000000000000000000000000000000000000000000000000081525081526020016040518060400160405280600881526020017f556e69766572736500000000000000000000000000000000000000000000000081525081526020016040518060400160405280600681526020017f43686f7275730000000000000000000000000000000000000000000000000000815250815250600d90600d620009c192919062000ec4565b506040518061016001604052806040518060400160405280600781526020017f234530424245340000000000000000000000000000000000000000000000000081525081526020016040518060400160405280600781526020017f233935374441440000000000000000000000000000000000000000000000000081525081526020016040518060400160405280600781526020017f234432393142430000000000000000000000000000000000000000000000000081525081526020016040518060400160405280600781526020017f234645433844380000000000000000000000000000000000000000000000000081525081526020016040518060400160405280600781526020017f234646444644330000000000000000000000000000000000000000000000000081525081526020016040518060400160405280600781526020017f234646444644330000000000000000000000000000000000000000000000000081525081526020016040518060400160405280600781526020017f234536433846440000000000000000000000000000000000000000000000000081525081526020016040518060400160405280600781526020017f234646463546370000000000000000000000000000000000000000000000000081525081526020016040518060400160405280600781526020017f234532463043420000000000000000000000000000000000000000000000000081525081526020016040518060400160405280600781526020017f234235454144370000000000000000000000000000000000000000000000000081525081526020016040518060400160405280600781526020017f2343374345454100000000000000000000000000000000000000000000000000815250815250600e90600b62000c6792919062000f2b565b5034801562000c7557600080fd5b506040518060400160405280600781526020017f436173734e4654000000000000000000000000000000000000000000000000008152506040518060400160405280600481526020017f4341535300000000000000000000000000000000000000000000000000000000815250816000908051906020019062000cfa92919062000e33565b50806001908051906020019062000d1392919062000e33565b50505062000d616040518060400160405280601981526020017f49276d206d616b696e67206120667269636b656e204e4654210000000000000081525062000d6760201b620014531760201c565b6200114c565b62000e078160405160240162000d7e919062001060565b6040516020818303038152906040527f41304fac000000000000000000000000000000000000000000000000000000007bffffffffffffffffffffffffffffffffffffffffffffffffffffffff19166020820180517bffffffffffffffffffffffffffffffffffffffffffffffffffffffff838183161783525050505062000e0a60201b60201c565b50565b60008151905060006a636f6e736f6c652e6c6f679050602083016000808483855afa5050505050565b82805462000e4190620010d6565b90600052602060002090601f01602090048101928262000e65576000855562000eb1565b82601f1062000e8057805160ff191683800117855562000eb1565b8280016001018555821562000eb1579182015b8281111562000eb057825182559160200191906001019062000e93565b5b50905062000ec0919062000f92565b5090565b82805482825590600052602060002090810192821562000f18579160200282015b8281111562000f1757825182908051906020019062000f0692919062000e33565b509160200191906001019062000ee5565b5b50905062000f27919062000fb1565b5090565b82805482825590600052602060002090810192821562000f7f579160200282015b8281111562000f7e57825182908051906020019062000f6d92919062000e33565b509160200191906001019062000f4c565b5b50905062000f8e919062000fb1565b5090565b5b8082111562000fad57600081600090555060010162000f93565b5090565b5b8082111562000fd5576000818162000fcb919062000fd9565b5060010162000fb2565b5090565b50805462000fe790620010d6565b6000825580601f1062000ffb57506200101c565b601f0160209004906000526020600020908101906200101b919062000f92565b5b50565b60006200102c8262001084565b6200103881856200108f565b93506200104a818560208601620010a0565b62001055816200113b565b840191505092915050565b600060208201905081810360008301526200107c81846200101f565b905092915050565b600081519050919050565b600082825260208201905092915050565b60005b83811015620010c0578082015181840152602081019050620010a3565b83811115620010d0576000848401525b50505050565b60006002820490506001821680620010ef57607f821691505b602082108114156200110657620011056200110c565b5b50919050565b7f4e487b7100000000000000000000000000000000000000000000000000000000600052602260045260246000fd5b6000601f19601f8301169050919050565b613bc2806200115c6000396000f3fe608060405234801561001057600080fd5b506004361061012c5760003560e01c806370a08231116100ad578063b98a4a0411610071578063b98a4a0414610367578063c575757a14610385578063c87b56dd146103b5578063de9d132f146103e5578063e985e9c5146103ef5761012c565b806370a08231146102b157806395d89b41146102e1578063a22cb465146102ff578063b187301f1461031b578063b88d4fde1461034b5761012c565b806323b872dd116100f457806323b872dd146101e95780632de38d681461020557806342842e0e14610235578063514dc8c6146102515780636352211e146102815761012c565b806301ffc9a714610131578063060475901461016157806306fdde031461017f578063081812fc1461019d578063095ea7b3146101cd575b600080fd5b61014b60048036038101906101469190612760565b61041f565b6040516101589190613418565b60405180910390f35b610169610501565b60405161017691906136b3565b60405180910390f35b610187610524565b6040516101949190613433565b60405180910390f35b6101b760048036038101906101b291906127b2565b6105b6565b6040516101c49190613388565b60405180910390f35b6101e760048036038101906101e29190612724565b61063b565b005b61020360048036038101906101fe919061261e565b610753565b005b61021f600480360381019061021a91906127b2565b6107b3565b60405161022c9190613433565b60405180910390f35b61024f600480360381019061024a919061261e565b6108d1565b005b61026b600480360381019061026691906127b2565b6108f1565b6040516102789190613433565b60405180910390f35b61029b600480360381019061029691906127b2565b610a0f565b6040516102a89190613388565b60405180910390f35b6102cb60048036038101906102c691906125b9565b610ac1565b6040516102d891906136b3565b60405180910390f35b6102e9610b79565b6040516102f69190613433565b60405180910390f35b610319600480360381019061031491906126e8565b610c0b565b005b610335600480360381019061033091906127b2565b610d8c565b6040516103429190613433565b60405180910390f35b6103656004803603810190610360919061266d565b610eaa565b005b61036f610f0c565b60405161037c91906136b3565b60405180910390f35b61039f600480360381019061039a91906127b2565b610f12565b6040516103ac9190613433565b60405180910390f35b6103cf60048036038101906103ca91906127b2565b611030565b6040516103dc9190613433565b60405180910390f35b6103ed611182565b005b610409600480360381019061040491906125e2565b6113bf565b6040516104169190613418565b60405180910390f35b60007f80ac58cd000000000000000000000000000000000000000000000000000000007bffffffffffffffffffffffffffffffffffffffffffffffffffffffff1916827bffffffffffffffffffffffffffffffffffffffffffffffffffffffff191614806104ea57507f5b5e139f000000000000000000000000000000000000000000000000000000007bffffffffffffffffffffffffffffffffffffffffffffffffffffffff1916827bffffffffffffffffffffffffffffffffffffffffffffffffffffffff1916145b806104fa57506104f9826114ec565b5b9050919050565b60006105156105106007611556565b611564565b61051f6007611556565b905090565b60606000805461053390613952565b80601f016020809104026020016040519081016040528092919081815260200182805461055f90613952565b80156105ac5780601f10610581576101008083540402835291602001916105ac565b820191906000526020600020905b81548152906001019060200180831161058f57829003601f168201915b5050505050905090565b60006105c1826115fd565b610600576040517f08c379a00000000000000000000000000000000000000000000000000000000081526004016105f7906135f3565b60405180910390fd5b6004600083815260200190815260200160002060009054906101000a900473ffffffffffffffffffffffffffffffffffffffff169050919050565b600061064682610a0f565b90508073ffffffffffffffffffffffffffffffffffffffff168373ffffffffffffffffffffffffffffffffffffffff1614156106b7576040517f08c379a00000000000000000000000000000000000000000000000000000000081526004016106ae90613653565b60405180910390fd5b8073ffffffffffffffffffffffffffffffffffffffff166106d6611669565b73ffffffffffffffffffffffffffffffffffffffff1614806107055750610704816106ff611669565b6113bf565b5b610744576040517f08c379a000000000000000000000000000000000000000000000000000000000815260040161073b90613533565b60405180910390fd5b61074e8383611671565b505050565b61076461075e611669565b8261172a565b6107a3576040517f08c379a000000000000000000000000000000000000000000000000000000000815260040161079a90613673565b60405180910390fd5b6107ae838383611808565b505050565b606060006107e76107c384611a64565b6040516020016107d39190613322565b604051602081830303815290604052611c11565b9050600b80549050816107fa91906139cd565b9050600b8181548110610836577f4e487b7100000000000000000000000000000000000000000000000000000000600052603260045260246000fd5b90600052602060002001805461084b90613952565b80601f016020809104026020016040519081016040528092919081815260200182805461087790613952565b80156108c45780601f10610899576101008083540402835291602001916108c4565b820191906000526020600020905b8154815290600101906020018083116108a757829003601f168201915b5050505050915050919050565b6108ec83838360405180602001604052806000815250610eaa565b505050565b6060600061092561090184611a64565b6040516020016109119190613366565b604051602081830303815290604052611c11565b9050600e805490508161093891906139cd565b9050600e8181548110610974577f4e487b7100000000000000000000000000000000000000000000000000000000600052603260045260246000fd5b90600052602060002001805461098990613952565b80601f01602080910402602001604051908101604052809291908181526020018280546109b590613952565b8015610a025780601f106109d757610100808354040283529160200191610a02565b820191906000526020600020905b8154815290600101906020018083116109e557829003601f168201915b5050505050915050919050565b6000806002600084815260200190815260200160002060009054906101000a900473ffffffffffffffffffffffffffffffffffffffff169050600073ffffffffffffffffffffffffffffffffffffffff168173ffffffffffffffffffffffffffffffffffffffff161415610ab8576040517f08c379a0000000000000000000000000000000000000000000000000000000008152600401610aaf90613573565b60405180910390fd5b80915050919050565b60008073ffffffffffffffffffffffffffffffffffffffff168273ffffffffffffffffffffffffffffffffffffffff161415610b32576040517f08c379a0000000000000000000000000000000000000000000000000000000008152600401610b2990613553565b60405180910390fd5b600360008373ffffffffffffffffffffffffffffffffffffffff1673ffffffffffffffffffffffffffffffffffffffff168152602001908152602001600020549050919050565b606060018054610b8890613952565b80601f0160208091040260200160405190810160405280929190818152602001828054610bb490613952565b8015610c015780601f10610bd657610100808354040283529160200191610c01565b820191906000526020600020905b815481529060010190602001808311610be457829003601f168201915b5050505050905090565b610c13611669565b73ffffffffffffffffffffffffffffffffffffffff168273ffffffffffffffffffffffffffffffffffffffff161415610c81576040517f08c379a0000000000000000000000000000000000000000000000000000000008152600401610c78906134f3565b60405180910390fd5b8060056000610c8e611669565b73ffffffffffffffffffffffffffffffffffffffff1673ffffffffffffffffffffffffffffffffffffffff16815260200190815260200160002060008473ffffffffffffffffffffffffffffffffffffffff1673ffffffffffffffffffffffffffffffffffffffff16815260200190815260200160002060006101000a81548160ff0219169083151502179055508173ffffffffffffffffffffffffffffffffffffffff16610d3b611669565b73ffffffffffffffffffffffffffffffffffffffff167f17307eab39ab6107e8899845ad3d59bd9653f200f220920489ca2b5937696c3183604051610d809190613418565b60405180910390a35050565b60606000610dc0610d9c84611a64565b604051602001610dac91906132bb565b604051602081830303815290604052611c11565b9050600c8054905081610dd391906139cd565b9050600c8181548110610e0f577f4e487b7100000000000000000000000000000000000000000000000000000000600052603260045260246000fd5b906000526020600020018054610e2490613952565b80601f0160208091040260200160405190810160405280929190818152602001828054610e5090613952565b8015610e9d5780601f10610e7257610100808354040283529160200191610e9d565b820191906000526020600020905b815481529060010190602001808311610e8057829003601f168201915b5050505050915050919050565b610ebb610eb5611669565b8361172a565b610efa576040517f08c379a0000000000000000000000000000000000000000000000000000000008152600401610ef190613673565b60405180910390fd5b610f0684848484611c44565b50505050565b60085481565b60606000610f46610f2284611a64565b604051602001610f329190613299565b604051602081830303815290604052611c11565b9050600d8054905081610f5991906139cd565b9050600d8181548110610f95577f4e487b7100000000000000000000000000000000000000000000000000000000600052603260045260246000fd5b906000526020600020018054610faa90613952565b80601f0160208091040260200160405190810160405280929190818152602001828054610fd690613952565b80156110235780601f10610ff857610100808354040283529160200191611023565b820191906000526020600020905b81548152906001019060200180831161100657829003601f168201915b5050505050915050919050565b606061103b826115fd565b61107a576040517f08c379a0000000000000000000000000000000000000000000000000000000008152600401611071906135d3565b60405180910390fd5b600060066000848152602001908152602001600020805461109a90613952565b80601f01602080910402602001604051908101604052809291908181526020018280546110c690613952565b80156111135780601f106110e857610100808354040283529160200191611113565b820191906000526020600020905b8154815290600101906020018083116110f657829003601f168201915b505050505090506000611124611ca0565b905060008151141561113a57819250505061117d565b60008251111561116f5780826040516020016111579291906131fb565b6040516020818303038152906040529250505061117d565b61117884611cb7565b925050505b919050565b600061118e6007611556565b9050600061119b826107b3565b905060006111a883610d8c565b905060006111b584610f12565b905060008383836040516020016111ce9392919061321f565b604051602081830303815290604052905060006111ea866108f1565b90506000600982600a856040516020016112079493929190613250565b6040516020818303038152906040529050600061124c8461122784611d5e565b6040516020016112389291906132dd565b604051602081830303815290604052611d5e565b90506000816040516020016112619190613344565b60405160208183030381529060405290506112b06040518060400160405280601581526020017f0a2d2d2d2d2d2d2d2d2d2d2d2d2d2d2d2d2d2d2d2d0000000000000000000000815250611453565b6112b981611453565b6112f76040518060400160405280601581526020017f2d2d2d2d2d2d2d2d2d2d2d2d2d2d2d2d2d2d2d2d0a0000000000000000000000815250611453565b6032891061133a576040517f08c379a000000000000000000000000000000000000000000000000000000000815260040161133190613693565b60405180910390fd5b611344338a611efd565b61134e8982611f1b565b6113586007611f8f565b61137b604051806060016040528060258152602001613b28602591398a33611fa5565b7febb98688741ffa4c7589bf325de30cf7becb63de567842e1ccdb6cb949fdc82c338a6040516113ac9291906133ef565b60405180910390a1505050505050505050565b6000600560008473ffffffffffffffffffffffffffffffffffffffff1673ffffffffffffffffffffffffffffffffffffffff16815260200190815260200160002060008373ffffffffffffffffffffffffffffffffffffffff1673ffffffffffffffffffffffffffffffffffffffff16815260200190815260200160002060009054906101000a900460ff16905092915050565b6114e9816040516024016114679190613433565b6040516020818303038152906040527f41304fac000000000000000000000000000000000000000000000000000000007bffffffffffffffffffffffffffffffffffffffffffffffffffffffff19166020820180517bffffffffffffffffffffffffffffffffffffffffffffffffffffffff8381831617835250505050612044565b50565b60007f01ffc9a7000000000000000000000000000000000000000000000000000000007bffffffffffffffffffffffffffffffffffffffffffffffffffffffff1916827bffffffffffffffffffffffffffffffffffffffffffffffffffffffff1916149050919050565b600081600001549050919050565b6115fa8160405160240161157891906136b3565b6040516020818303038152906040527ff5b1bba9000000000000000000000000000000000000000000000000000000007bffffffffffffffffffffffffffffffffffffffffffffffffffffffff19166020820180517bffffffffffffffffffffffffffffffffffffffffffffffffffffffff8381831617835250505050612044565b50565b60008073ffffffffffffffffffffffffffffffffffffffff166002600084815260200190815260200160002060009054906101000a900473ffffffffffffffffffffffffffffffffffffffff1673ffffffffffffffffffffffffffffffffffffffff1614159050919050565b600033905090565b816004600083815260200190815260200160002060006101000a81548173ffffffffffffffffffffffffffffffffffffffff021916908373ffffffffffffffffffffffffffffffffffffffff160217905550808273ffffffffffffffffffffffffffffffffffffffff166116e483610a0f565b73ffffffffffffffffffffffffffffffffffffffff167f8c5be1e5ebec7d5bd14f71427d1e84f3dd0314c0f7b2291e5b200ac8c7c3b92560405160405180910390a45050565b6000611735826115fd565b611774576040517f08c379a000000000000000000000000000000000000000000000000000000000815260040161176b90613513565b60405180910390fd5b600061177f83610a0f565b90508073ffffffffffffffffffffffffffffffffffffffff168473ffffffffffffffffffffffffffffffffffffffff1614806117ee57508373ffffffffffffffffffffffffffffffffffffffff166117d6846105b6565b73ffffffffffffffffffffffffffffffffffffffff16145b806117ff57506117fe81856113bf565b5b91505092915050565b8273ffffffffffffffffffffffffffffffffffffffff1661182882610a0f565b73ffffffffffffffffffffffffffffffffffffffff161461187e576040517f08c379a000000000000000000000000000000000000000000000000000000000815260040161187590613613565b60405180910390fd5b600073ffffffffffffffffffffffffffffffffffffffff168273ffffffffffffffffffffffffffffffffffffffff1614156118ee576040517f08c379a00000000000000000000000000000000000000000000000000000000081526004016118e5906134d3565b60405180910390fd5b6118f983838361206d565b611904600082611671565b6001600360008573ffffffffffffffffffffffffffffffffffffffff1673ffffffffffffffffffffffffffffffffffffffff16815260200190815260200160002060008282546119549190613868565b925050819055506001600360008473ffffffffffffffffffffffffffffffffffffffff1673ffffffffffffffffffffffffffffffffffffffff16815260200190815260200160002060008282546119ab9190613787565b92505081905550816002600083815260200190815260200160002060006101000a81548173ffffffffffffffffffffffffffffffffffffffff021916908373ffffffffffffffffffffffffffffffffffffffff160217905550808273ffffffffffffffffffffffffffffffffffffffff168473ffffffffffffffffffffffffffffffffffffffff167fddf252ad1be2c89b69c2b068fc378daa952ba7f163c4a11628f55a4df523b3ef60405160405180910390a4505050565b60606000821415611aac576040518060400160405280600181526020017f30000000000000000000000000000000000000000000000000000000000000008152509050611c0c565b600082905060005b60008214611ade578080611ac790613984565b915050600a82611ad791906137dd565b9150611ab4565b60008167ffffffffffffffff811115611b20577f4e487b7100000000000000000000000000000000000000000000000000000000600052604160045260246000fd5b6040519080825280601f01601f191660200182016040528015611b525781602001600182028036833780820191505090505b5090505b60008514611c0557600182611b6b9190613868565b9150600a85611b7a91906139cd565b6030611b869190613787565b60f81b818381518110611bc2577f4e487b7100000000000000000000000000000000000000000000000000000000600052603260045260246000fd5b60200101907effffffffffffffffffffffffffffffffffffffffffffffffffffffffffffff1916908160001a905350600a85611bfe91906137dd565b9450611b56565b8093505050505b919050565b600081604051602001611c2491906131e4565b6040516020818303038152906040528051906020012060001c9050919050565b611c4f848484611808565b611c5b84848484612072565b611c9a576040517f08c379a0000000000000000000000000000000000000000000000000000000008152600401611c9190613493565b60405180910390fd5b50505050565b606060405180602001604052806000815250905090565b6060611cc2826115fd565b611d01576040517f08c379a0000000000000000000000000000000000000000000000000000000008152600401611cf890613633565b60405180910390fd5b6000611d0b611ca0565b90506000815111611d2b5760405180602001604052806000815250611d56565b80611d3584611a64565b604051602001611d469291906131fb565b6040516020818303038152906040525b915050919050565b6060600082511415611d8157604051806020016040528060008152509050611ef8565b6000604051806060016040528060408152602001613b4d6040913990506000600360028551611db09190613787565b611dba91906137dd565b6004611dc6919061380e565b90506000602082611dd79190613787565b67ffffffffffffffff811115611e16577f4e487b7100000000000000000000000000000000000000000000000000000000600052604160045260246000fd5b6040519080825280601f01601f191660200182016040528015611e485781602001600182028036833780820191505090505b509050818152600183018586518101602084015b81831015611eb7576003830192508251603f8160121c168501518253600182019150603f81600c1c168501518253600182019150603f8160061c168501518253600182019150603f8116850151825360018201915050611e5c565b600389510660018114611ed15760028114611ee157611eec565b613d3d60f01b6002830352611eec565b603d60f81b60018303525b50505050508093505050505b919050565b611f17828260405180602001604052806000815250612209565b5050565b611f24826115fd565b611f63576040517f08c379a0000000000000000000000000000000000000000000000000000000008152600401611f5a90613593565b60405180910390fd5b80600660008481526020019081526020016000209080519060200190611f8a929190612445565b505050565b6001816000016000828254019250508190555050565b61203f838383604051602401611fbd93929190613455565b6040516020818303038152906040527fe3849f79000000000000000000000000000000000000000000000000000000007bffffffffffffffffffffffffffffffffffffffffffffffffffffffff19166020820180517bffffffffffffffffffffffffffffffffffffffffffffffffffffffff8381831617835250505050612044565b505050565b60008151905060006a636f6e736f6c652e6c6f679050602083016000808483855afa5050505050565b505050565b60006120938473ffffffffffffffffffffffffffffffffffffffff16612264565b156121fc578373ffffffffffffffffffffffffffffffffffffffff1663150b7a026120bc611669565b8786866040518563ffffffff1660e01b81526004016120de94939291906133a3565b602060405180830381600087803b1580156120f857600080fd5b505af192505050801561212957506040513d601f19601f820116820180604052508101906121269190612789565b60015b6121ac573d8060008114612159576040519150601f19603f3d011682016040523d82523d6000602084013e61215e565b606091505b506000815114156121a4576040517f08c379a000000000000000000000000000000000000000000000000000000000815260040161219b90613493565b60405180910390fd5b805181602001fd5b63150b7a0260e01b7bffffffffffffffffffffffffffffffffffffffffffffffffffffffff1916817bffffffffffffffffffffffffffffffffffffffffffffffffffffffff191614915050612201565b600190505b949350505050565b6122138383612277565b6122206000848484612072565b61225f576040517f08c379a000000000000000000000000000000000000000000000000000000000815260040161225690613493565b60405180910390fd5b505050565b600080823b905060008111915050919050565b600073ffffffffffffffffffffffffffffffffffffffff168273ffffffffffffffffffffffffffffffffffffffff1614156122e7576040517f08c379a00000000000000000000000000000000000000000000000000000000081526004016122de906135b3565b60405180910390fd5b6122f0816115fd565b15612330576040517f08c379a0000000000000000000000000000000000000000000000000000000008152600401612327906134b3565b60405180910390fd5b61233c6000838361206d565b6001600360008473ffffffffffffffffffffffffffffffffffffffff1673ffffffffffffffffffffffffffffffffffffffff168152602001908152602001600020600082825461238c9190613787565b92505081905550816002600083815260200190815260200160002060006101000a81548173ffffffffffffffffffffffffffffffffffffffff021916908373ffffffffffffffffffffffffffffffffffffffff160217905550808273ffffffffffffffffffffffffffffffffffffffff16600073ffffffffffffffffffffffffffffffffffffffff167fddf252ad1be2c89b69c2b068fc378daa952ba7f163c4a11628f55a4df523b3ef60405160405180910390a45050565b82805461245190613952565b90600052602060002090601f01602090048101928261247357600085556124ba565b82601f1061248c57805160ff19168380011785556124ba565b828001600101855582156124ba579182015b828111156124b957825182559160200191906001019061249e565b5b5090506124c791906124cb565b5090565b5b808211156124e45760008160009055506001016124cc565b5090565b60006124fb6124f6846136ff565b6136ce565b90508281526020810184848401111561251357600080fd5b61251e848285613910565b509392505050565b60008135905061253581613acb565b92915050565b60008135905061254a81613ae2565b92915050565b60008135905061255f81613af9565b92915050565b60008151905061257481613af9565b92915050565b600082601f83011261258b57600080fd5b813561259b8482602086016124e8565b91505092915050565b6000813590506125b381613b10565b92915050565b6000602082840312156125cb57600080fd5b60006125d984828501612526565b91505092915050565b600080604083850312156125f557600080fd5b600061260385828601612526565b925050602061261485828601612526565b9150509250929050565b60008060006060848603121561263357600080fd5b600061264186828701612526565b935050602061265286828701612526565b9250506040612663868287016125a4565b9150509250925092565b6000806000806080858703121561268357600080fd5b600061269187828801612526565b94505060206126a287828801612526565b93505060406126b3878288016125a4565b925050606085013567ffffffffffffffff8111156126d057600080fd5b6126dc8782880161257a565b91505092959194509250565b600080604083850312156126fb57600080fd5b600061270985828601612526565b925050602061271a8582860161253b565b9150509250929050565b6000806040838503121561273757600080fd5b600061274585828601612526565b9250506020612756858286016125a4565b9150509250929050565b60006020828403121561277257600080fd5b600061278084828501612550565b91505092915050565b60006020828403121561279b57600080fd5b60006127a984828501612565565b91505092915050565b6000602082840312156127c457600080fd5b60006127d2848285016125a4565b91505092915050565b6127e48161389c565b82525050565b6127f3816138ae565b82525050565b600061280482613744565b61280e818561375a565b935061281e81856020860161391f565b61282781613aba565b840191505092915050565b600061283d8261374f565b612847818561376b565b935061285781856020860161391f565b61286081613aba565b840191505092915050565b60006128768261374f565b612880818561377c565b935061289081856020860161391f565b80840191505092915050565b600081546128a981613952565b6128b3818661377c565b945060018216600081146128ce57600181146128df57612912565b60ff19831686528186019350612912565b6128e88561372f565b60005b8381101561290a578154818901526001820191506020810190506128eb565b838801955050505b50505092915050565b600061292860328361376b565b91507f4552433732313a207472616e7366657220746f206e6f6e20455243373231526560008301527f63656976657220696d706c656d656e74657200000000000000000000000000006020830152604082019050919050565b600061298e601c8361376b565b91507f4552433732313a20746f6b656e20616c7265616479206d696e746564000000006000830152602082019050919050565b60006129ce600a8361377c565b91507f54484952445f574f5244000000000000000000000000000000000000000000006000830152600a82019050919050565b6000612a0e60248361376b565b91507f4552433732313a207472616e7366657220746f20746865207a65726f2061646460008301527f72657373000000000000000000000000000000000000000000000000000000006020830152604082019050919050565b6000612a7460198361376b565b91507f4552433732313a20617070726f766520746f2063616c6c6572000000000000006000830152602082019050919050565b6000612ab4600b8361377c565b91507f5345434f4e445f574f52440000000000000000000000000000000000000000006000830152600b82019050919050565b6000612af4602c8361376b565b91507f4552433732313a206f70657261746f7220717565727920666f72206e6f6e657860008301527f697374656e7420746f6b656e00000000000000000000000000000000000000006020830152604082019050919050565b6000612b5a600d8361377c565b91507f3c2f746578743e3c2f7376673e000000000000000000000000000000000000006000830152600d82019050919050565b6000612b9a60388361376b565b91507f4552433732313a20617070726f76652063616c6c6572206973206e6f74206f7760008301527f6e6572206e6f7220617070726f76656420666f7220616c6c00000000000000006020830152604082019050919050565b6000612c00602a8361376b565b91507f4552433732313a2062616c616e636520717565727920666f7220746865207a6560008301527f726f2061646472657373000000000000000000000000000000000000000000006020830152604082019050919050565b6000612c6660298361376b565b91507f4552433732313a206f776e657220717565727920666f72206e6f6e657869737460008301527f656e7420746f6b656e00000000000000000000000000000000000000000000006020830152604082019050919050565b6000612ccc602e8361376b565b91507f45524337323155524953746f726167653a2055524920736574206f66206e6f6e60008301527f6578697374656e7420746f6b656e0000000000000000000000000000000000006020830152604082019050919050565b6000612d3260028361377c565b91507f227d0000000000000000000000000000000000000000000000000000000000006000830152600282019050919050565b6000612d7260468361377c565b91507f222c20226465736372697074696f6e223a20224d6167696320576f7264732e2260008301527f2c2022696d616765223a2022646174613a696d6167652f7376672b786d6c3b6260208301527f61736536342c00000000000000000000000000000000000000000000000000006040830152604682019050919050565b6000612dfe60208361376b565b91507f4552433732313a206d696e7420746f20746865207a65726f20616464726573736000830152602082019050919050565b6000612e3e60318361376b565b91507f45524337323155524953746f726167653a2055524920717565727920666f722060008301527f6e6f6e6578697374656e7420746f6b656e0000000000000000000000000000006020830152604082019050919050565b6000612ea4602c8361376b565b91507f4552433732313a20617070726f76656420717565727920666f72206e6f6e657860008301527f697374656e7420746f6b656e00000000000000000000000000000000000000006020830152604082019050919050565b6000612f0a60298361376b565b91507f4552433732313a207472616e73666572206f6620746f6b656e2074686174206960008301527f73206e6f74206f776e00000000000000000000000000000000000000000000006020830152604082019050919050565b6000612f70602f8361376b565b91507f4552433732314d657461646174613a2055524920717565727920666f72206e6f60008301527f6e6578697374656e7420746f6b656e00000000000000000000000000000000006020830152604082019050919050565b6000612fd6600a8361377c565b91507f7b226e616d65223a2022000000000000000000000000000000000000000000006000830152600a82019050919050565b600061301660218361376b565b91507f4552433732313a20617070726f76616c20746f2063757272656e74206f776e6560008301527f72000000000000000000000000000000000000000000000000000000000000006020830152604082019050919050565b600061307c600a8361377c565b91507f46495253545f574f5244000000000000000000000000000000000000000000006000830152600a82019050919050565b60006130bc601d8361377c565b91507f646174613a6170706c69636174696f6e2f6a736f6e3b6261736536342c0000006000830152601d82019050919050565b60006130fc60318361376b565b91507f4552433732313a207472616e736665722063616c6c6572206973206e6f74206f60008301527f776e6572206e6f7220617070726f7665640000000000000000000000000000006020830152604082019050919050565b6000613162600d8361376b565b91507f4e6f206d6f7265206c65667421000000000000000000000000000000000000006000830152602082019050919050565b60006131a260058361377c565b91507f434f4c4f520000000000000000000000000000000000000000000000000000006000830152600582019050919050565b6131de81613906565b82525050565b60006131f0828461286b565b915081905092915050565b6000613207828561286b565b9150613213828461286b565b91508190509392505050565b600061322b828661286b565b9150613237828561286b565b9150613243828461286b565b9150819050949350505050565b600061325c828761289c565b9150613268828661286b565b9150613274828561289c565b9150613280828461286b565b915061328b82612b4d565b915081905095945050505050565b60006132a4826129c1565b91506132b0828461286b565b915081905092915050565b60006132c682612aa7565b91506132d2828461286b565b915081905092915050565b60006132e882612fc9565b91506132f4828561286b565b91506132ff82612d65565b915061330b828461286b565b915061331682612d25565b91508190509392505050565b600061332d8261306f565b9150613339828461286b565b915081905092915050565b600061334f826130af565b915061335b828461286b565b915081905092915050565b600061337182613195565b915061337d828461286b565b915081905092915050565b600060208201905061339d60008301846127db565b92915050565b60006080820190506133b860008301876127db565b6133c560208301866127db565b6133d260408301856131d5565b81810360608301526133e481846127f9565b905095945050505050565b600060408201905061340460008301856127db565b61341160208301846131d5565b9392505050565b600060208201905061342d60008301846127ea565b92915050565b6000602082019050818103600083015261344d8184612832565b905092915050565b6000606082019050818103600083015261346f8186612832565b905061347e60208301856131d5565b61348b60408301846127db565b949350505050565b600060208201905081810360008301526134ac8161291b565b9050919050565b600060208201905081810360008301526134cc81612981565b9050919050565b600060208201905081810360008301526134ec81612a01565b9050919050565b6000602082019050818103600083015261350c81612a67565b9050919050565b6000602082019050818103600083015261352c81612ae7565b9050919050565b6000602082019050818103600083015261354c81612b8d565b9050919050565b6000602082019050818103600083015261356c81612bf3565b9050919050565b6000602082019050818103600083015261358c81612c59565b9050919050565b600060208201905081810360008301526135ac81612cbf565b9050919050565b600060208201905081810360008301526135cc81612df1565b9050919050565b600060208201905081810360008301526135ec81612e31565b9050919050565b6000602082019050818103600083015261360c81612e97565b9050919050565b6000602082019050818103600083015261362c81612efd565b9050919050565b6000602082019050818103600083015261364c81612f63565b9050919050565b6000602082019050818103600083015261366c81613009565b9050919050565b6000602082019050818103600083015261368c816130ef565b9050919050565b600060208201905081810360008301526136ac81613155565b9050919050565b60006020820190506136c860008301846131d5565b92915050565b6000604051905081810181811067ffffffffffffffff821117156136f5576136f4613a8b565b5b8060405250919050565b600067ffffffffffffffff82111561371a57613719613a8b565b5b601f19601f8301169050602081019050919050565b60008190508160005260206000209050919050565b600081519050919050565b600081519050919050565b600082825260208201905092915050565b600082825260208201905092915050565b600081905092915050565b600061379282613906565b915061379d83613906565b9250827fffffffffffffffffffffffffffffffffffffffffffffffffffffffffffffffff038211156137d2576137d16139fe565b5b828201905092915050565b60006137e882613906565b91506137f383613906565b92508261380357613802613a2d565b5b828204905092915050565b600061381982613906565b915061382483613906565b9250817fffffffffffffffffffffffffffffffffffffffffffffffffffffffffffffffff048311821515161561385d5761385c6139fe565b5b828202905092915050565b600061387382613906565b915061387e83613906565b925082821015613891576138906139fe565b5b828203905092915050565b60006138a7826138e6565b9050919050565b60008115159050919050565b60007fffffffff0000000000000000000000000000000000000000000000000000000082169050919050565b600073ffffffffffffffffffffffffffffffffffffffff82169050919050565b6000819050919050565b82818337600083830152505050565b60005b8381101561393d578082015181840152602081019050613922565b8381111561394c576000848401525b50505050565b6000600282049050600182168061396a57607f821691505b6020821081141561397e5761397d613a5c565b5b50919050565b600061398f82613906565b91507fffffffffffffffffffffffffffffffffffffffffffffffffffffffffffffffff8214156139c2576139c16139fe565b5b600182019050919050565b60006139d882613906565b91506139e383613906565b9250826139f3576139f2613a2d565b5b828206905092915050565b7f4e487b7100000000000000000000000000000000000000000000000000000000600052601160045260246000fd5b7f4e487b7100000000000000000000000000000000000000000000000000000000600052601260045260246000fd5b7f4e487b7100000000000000000000000000000000000000000000000000000000600052602260045260246000fd5b7f4e487b7100000000000000000000000000000000000000000000000000000000600052604160045260246000fd5b6000601f19601f8301169050919050565b613ad48161389c565b8114613adf57600080fd5b50565b613aeb816138ae565b8114613af657600080fd5b50565b613b02816138ba565b8114613b0d57600080fd5b50565b613b1981613906565b8114613b2457600080fd5b5056fe416e204e465420772f20494420257320686173206265656e206d696e74656420746f2025734142434445464748494a4b4c4d4e4f505152535455565758595a6162636465666768696a6b6c6d6e6f707172737475767778797a303132333435363738392b2fa26469706673582212204fbf71497f6b1c0070ddb056e83c4e2468b26717b6ba6bb04b588680dcb6a73864736f6c634300080000333c73766720786d6c6e733d27687474703a2f2f7777772e77332e6f72672f323030302f73766727207072657365727665417370656374526174696f3d27784d696e594d696e206d656574272076696577426f783d273020302033353020333530273e3c7374796c653e2e62617365207b2066696c6c3a2077686974653b20666f6e742d66616d696c793a2073657269663b20666f6e742d73697a653a20323470783b207d3c2f7374796c653e3c726563742077696474683d273130302527206865696768743d2731303025272066696c6c3d27272f3e3c7465787420783d273530252720793d273530252720636c6173733d27626173652720646f6d696e616e742d626173656c696e653d276d6964646c652720746578742d616e63686f723d276d6964646c65273e",
  "linkReferences": {},
  "deployedLinkReferences": {}
}